:020000040000FA
:0600000015EF09F01200EB
:0610000015EF09F01200DB
:021008001200D4
:021018001200C4
:06102A0001004812000065
:08103000600000007E000000DA
:08103800D9CFE6FFE1CFD9FF9B
:10104000020EE126010EDB6A9494948E949CE10ECC
:10105000AF6E040EB06E240EAC6E900EAB6E080E2A
:10106000B86E8294600EE66E000EE66E53D8E552BE
:10107000E5527B0EE66E000EE66E4CD8E552E55268
:101080008D0EE66E000EE66E45D8E552E552A90ECD
:10109000E66E000EE66E3ED8E552E552010EDB6AC2
:1010A0000A0EF36E010EDBCFF4FFF350F45C13E293
:1010B0009EAAFED7AE50DF6E310EDF5C01E1828466
:1010C0009EAAFED7AE50DF6E320EDF5C01E1829445
:1010D000010EDB2AE5D7C80EE66E000EE66E1AD8C2
:1010E000E552E552FFD7020EE15C02E2E16AE55209
:1010F000E16EE552E7CFD9FF1200D9CFE6FFE1CF8D
:10110000D9FFACA2FED7FE0EDB50AD6EE552E7CFA5
:10111000D9FF1200D9CFE6FFE1CFD9FFE652DF6A4F
:10112000DF6ADF50E76EFD0EDBCFE9FFFE0EDBCF9F
:10113000EAFFE750E926000EEA22EF5012E0DF5006
:10114000E76EFD0EDBCFE9FFFE0EDBCFEAFFE750D7
:10115000E926000EEA22EF50E66ECFDFE552DF2AE5
:0C116000E0D7E552E552E7CFD9FF1200BE
:04116C002A0EF66EE3
:10117000100EF76E000EF86E00010900F550E36FD7
:101180000900F550E46F03E1E36701D03DD00900A9
:10119000F550DE6F0900F550DF6F0900F550E06F84
:1011A00009000900F550E96E0900F550EA6E0900E2
:1011B00009000900F550E16F0900F550E26F0900E0
:1011C0000900F6CFE5F0F7CFE6F0F8CFE7F0DEC0A4
:1011D000F6FFDFC0F7FFE0C0F8FF0001E15302E1D6
:1011E000E25307E00900F550EE6EE107F8E2E2078E
:1011F000F9D7E5C0F6FFE6C0F7FFE7C0F8FF00014A
:0A120000E307000EE45BBFD7120005
:06120A00000EF36E00EE81
:1012100000F0080E01D81200EA6002D0EE6AFCD796
:0A122000F350E9601200EE6AFCD7FB
:06122A0013EE00F023EEBC
:1012300000F0F86A019CB6EC08F023EC09F01CEC15
:0612400008F0FBD71200CC
:02124600120094
:081248000A0D536D6172742060
:101250004C6F67696320546563686E6F6C6F676974
:101260006573000A0D555341525420546573742020
:10127000436F6465000A0D507265737320312074EA
:101280006F207475726E204F4E2062757A7A657287
:10129000000A0D5072657373203220746F207475CC
:1012A000726E204F46462062757A7A65720A0D008A
:1012B0000A0D5278205478207465737420636F6D22
:0612C000706C657465000E
:00000001FF
