:020000040000FA
:060000003BEF0BF01200C3
:061000003BEF0BF01200B3
:021008001200D4
:021018001200C4
:02102A000000C4
:04102C00D9CFE6FF33
:10103000E1CFD9FF260EE126D9CFE9FFDACFEAFFCB
:10104000530EEE6E6D0EEE6E610EEE6E720EEE6E65
:10105000740EEE6E200EEE6E4C0EEE6E6F0EEE6E99
:10106000670EEE6E690EEE6E630EEE6E200EEE6E85
:10107000540EEE6E650EEE6E630EEE6E680EEE6E44
:10108000EE6AD950110FE96EDACFEAFF410EEE6E2B
:10109000440EEE6E430EEE6E200EEE6E560EEE6EAB
:1010A0004F0EEE6E4C0EEE6E540EEE6E3A0EEE6E6F
:1010B000EE6A0F0EC16E956A966A10D981D9D9CFA2
:1010C0006AF0DACF6BF0CFD9C00EE66EA2D9E55246
:1010D0000001D950110F6A6FDACF6BF0C4D906D96D
:1010E00007D9200EF3CFDBFF210EF4CFDBFF200E5C
:1010F000DBCF04F0210EDBCF05F0066A076AE90EAC
:10110000096E010E0A6E0B6A0C6AB9EC0AF0220E27
:1011100000C0DBFF230E01C0DBFF240E02C0DBFF9B
:10112000250E03C0DBFF220EDBCF04F0230EDBCF46
:1011300005F0240EDBCF06F0250EDBCF07F0640EA2
:10114000096E0A6A0B6A0C6AF1EC0AF0200E04C000
:10115000DBFF210E05C0DBFFC90EE66E5AD9E55252
:10116000E80E106E030E116E200EDBCF06F0210E7E
:10117000DBCF07F010C00BF011C00CF015EC0BF03A
:101180001B0E06C0DBFFDB50300FE76E1C0EE7CFF7
:10119000DBFFDBCFE6FF52D9E5522E0EE66E4ED9CD
:1011A000E552200EDBCF10F0210EDBCF11F0E80E60
:1011B0000B6E030E0C6E10C006F011C007F015EC9C
:1011C0000BF002C010F003C011F0640E0B6E0C6A3D
:1011D00010C006F011C007F015EC0BF006C010F0BF
:1011E00007C011F01B0E10C0DBFFDB50300FE76EA5
:1011F0001D0EE7CFDBFFDBCFE6FF20D9E552200E47
:10120000DBCF10F0210EDBCF11F0E80E0B6E030EDA
:101210000C6E10C006F011C007F015EC0BF002C008
:1012200010F003C011F0640E0B6E0C6A10C006F0D3
:1012300011C007F015EC0BF002C010F003C011F064
:101240000A0E0B6E0C6A10C006F011C007F015EC08
:101250000BF006C010F007C011F01B0E10C0DBFF32
:10126000DB50300FE76E1E0EE7CFDBFFDBCFE6FF74
:10127000E5D8E552200EDBCF10F0210EDBCF11F0C8
:101280000A0E0B6E0C6A10C006F011C007F015ECC8
:101290000BF002C010F003C011F01B0E10C0DBFFFA
:1012A000DB501E0FE76E1F0EE7CFDBFF1B0EDB5080
:1012B000300FE66EC3D8E5522C0EE66E010EE66ED8
:1012C00044D8E552E5520BD7260EE15C02E2E16A12
:1012D000E552E16EE552E7CFD9FF1200080EC26E6B
:1012E0000E0EC16E8E0EC06EC2801200C28212003F
:1012F000D9CFE6FFE1CFD9FF020EE126DE6ADD6A33
:10130000C2B2FED7C350DE6EDD6AC450106E10C08C
:1013100011F0106AD9CFE9FFDACFEAFF1050EE12D0
:101320001150ED12DECF10F0DDCF11F010C0F3FF41
:1013300011C0F4FF020EE15C03E200D0E16AE55265
:10134000E16EE552E7CFD9FF1200D9CFE6FFE1CF3A
:10135000D9FF040EE126DE6ADD6ADECF10F0DDCFB4
:1013600011F0FD0EDBCF12F0FE0EDBCF13F01250AA
:10137000105C135011581AE2020EDB6A030EDB6A8E
:10138000020EDBCF10F0030EDBCF11F0C60E105CA7
:10139000020E115806E2020EDB2A030E01E3DB2ADD
:1013A000EFD7DF2A010E01E3DB2AD7D7040EE15C79
:1013B00002E2E16AE552E16EE552E7CFD9FF1200A1
:1013C000380EE66E26D8E5520F0EE66EE66ABDDFF1
:1013D000E552E552010EE66E1CD8E5520F0EE66EA0
:1013E000E66AB3DFE552E5520C0EE66E12D8E5521E
:1013F0000F0EE66EE66AA9DFE552E552800EE66E54
:1014000008D8E5520F0EE66EE66A9FDFE552E55218
:101410001200D9CFE6FFE1CFD9FFFE0EDB50836E7D
:101420008490849284840F0EE66EE66A8EDFE55225
:10143000E5528494E552E7CFD9FF1200D9CFE6FFF9
:10144000E1CFD9FFFE0EDB50836E848084928484CA
:101450000F0EE66EE66A79DFE552E5528494E552B6
:10146000E7CFD9FF1200D9CFE6FFE1CFD9FF020EB7
:10147000E126DE6ADD6ADE5000016A250F01E96EB1
:10148000DD5000016B210F01EA6EEF5019E0DE50D4
:1014900000016A250F01E96EDD5000016B210F018B
:1014A000EA6EEF50E66ECADFE5520F0EE66EE66AB0
:1014B0004CDFE552E552DF2A010E01E3DB2ADBD7E0
:1014C000020EE15C02E2E16AE552E16EE552E7CF2D
:0414D000D9FF12002E
:0C14D4002A0EF66E100EF76E000EF86E79
:1014E00000010900F550656F0900F550666F03E1D2
:1014F000656701D03DD00900F550606F0900F550D7
:10150000616F0900F550626F09000900F550E96E3E
:101510000900F550EA6E090009000900F550636FF3
:101520000900F550646F09000900F6CF67F0F7CFA6
:1015300068F0F8CF69F060C0F6FF61C0F7FF62C0E5
:10154000F8FF0001635302E1645307E00900F5501E
:10155000EE6E6307F8E26407F9D767C0F6FF68C06C
:10156000F7FF69C0F8FF00016507000E665BBFD793
:02157000120067
:0E15720004500902F3CF00F0F4CF01F00A029A
:10158000F3500126000EF420026E04500B02F350BB
:101590000226000EF420036E04500C02F3500326C2
:1015A00005500902F3500126F4500222000E0322D6
:1015B00005500A02F3500226F450032205500B0294
:1015C000F350032606500902F3500226F45003227A
:1015D00006500A02F350032607500902F35003266F
:0215E0001200F7
:0E15E200036A026A016A006A200EE76ED89062
:1015F000043605360636073600360136023603361F
:101600000950005C0A5001580B5002580C50035806
:1016100009E30950005E0A50015A0B50025A0C505F
:0A162000035A042AE72EE4D7120053
:06162A00036A026A100EC3
:10163000E76ED89006360736023603360B50025C4A
:101640000C50035805E30B50025E0C50035A062A57
:06165000E72EF0D71200A6
:0A165600000EF36E00EE00F0080E27
:1016600001D81200EA6002D0EE6AFCD7F350E960BC
:061670001200EE6AFCD737
:0A16760013EE00F023EE00F0F86A16
:101680000F9C6AEC0AF049EC0BF016EC08F0FBD763
:02169000120046
:02169200120044
:00000001FF
