:020000040000FA
:0600000016EF09F01200EA
:0610000016EF09F01200DA
:021008001200D4
:021018001200C4
:06102A0001004A12000063
:08103000600000007F000000D9
:08103800D9CFE6FFE1CFD9FF9B
:10104000150EE126DF6A948E949CE10EAF6E040EBD
:10105000B06E240EAC6E900EAB6E080EB86E600EC5
:10106000E66E000EE66E57D8E552E5527B0EE66E50
:10107000000EE66E50D8E552E5528D0EE66E000E7B
:10108000E66E49D8E552E552DF6A0A0EDF5C12E2ED
:101090009EAAFED7D950010F026EDACF03F0DF50BF
:1010A0000F010224E96E000E0320EA6EAECFEFFFBF
:1010B000DF2AEBD70B0EDB6AA90EE66E000EE66E9A
:1010C0002AD8E552E552D950010FE66E000EDA201B
:1010D000E66E21D8E552E552C70EE66E000EE66ECA
:1010E0001AD8E552E552FFD7150EE15C02E2E16A3B
:1010F000E552E16EE552E7CFD9FF1200D9CFE6FF06
:10110000E1CFD9FFACA2FED7FE0EDB50AD6EE552AB
:10111000E7CFD9FF1200D9CFE6FFE1CFD9FFE652E2
:10112000DF6ADF6ADF50E76EFD0EDBCFE9FFFE0E00
:10113000DBCFEAFFE750E926000EEA22EF5012E08B
:10114000DF50E76EFD0EDBCFE9FFFE0EDBCFEAFFDF
:10115000E750E926000EEA22EF50E66ECFDFE552B7
:0E116000DF2AE0D7E552E552E7CFD9FF1200B3
:02116E002A0E47
:10117000F66E100EF76E000EF86E00010900F550C5
:10118000E46F0900F550E56F03E1E46701D03DD05D
:101190000900F550DF6F0900F550E06F0900F550C8
:1011A000E16F09000900F550E96E0900F550EA6E9B
:1011B000090009000900F550E26F0900F550E36FDE
:1011C00009000900F6CFE6F0F7CFE7F0F8CFE8F036
:1011D000DFC0F6FFE0C0F7FFE1C0F8FF0001E25317
:1011E00002E1E35307E00900F550EE6EE207F8E292
:1011F000E307F9D7E6C0F6FFE7C0F7FFE8C0F8FF5E
:0C1200000001E407000EE55BBFD7120000
:04120C00000EF36E6F
:1012100000EE00F0080E01D81200EA6002D0EE6A7B
:0C122000FCD7F350E9601200EE6AFCD726
:04122C0013EE00F0CD
:1012300023EE00F0F86A019CB7EC08F024EC09F00A
:081240001CEC08F0FBD71200C2
:02124800120092
:06124A000A0D536D6172F4
:1012500074204C6F67696320546563686E6F6C6FB0
:1012600067696573000A0D555341525420546573E4
:101270007420436F6465000A0D53656E642031303D
:101280002063686172616374657220746F207543B6
:101290000A0D000A0D5472616E736D697474656491
:1012A0002043686172616374657273206172653A8C
:1012B000000A0D5278205478207465737420636F8F
:0912C0006D706C6574650A0D0087
:00000001FF
