:020000040000FA
:0600000030EF0BF01200CE
:0610000030EF0BF01200BE
:021008001200D4
:021018001200C4
:02102A000000C4
:04102C00D9CFE6FF33
:10103000E1CFD9FF450EE126DF6AD950020FE96EF4
:10104000DACFEAFF530EEE6E500EEE6E490EEE6EE4
:101050005F0EEE6E540EEE6E450EEE6E530EEE6E9D
:10106000540EEE6EEE6AD9500B0FE96EDACFEAFF3E
:10107000530EEE6E4D0EEE6E410EEE6E520EEE6E95
:10108000540EEE6E4C0EEE6E4F0EEE6E470EEE6E82
:10109000490EEE6E430EEE6E200EEE6E540EEE6EA8
:1010A000450EEE6E430EEE6E480EEE6EEE6AD950B1
:1010B0001B0FE96EDACFEAFF530EEE6E500EEE6EA6
:1010C000490EEE6E200EEE6E450EEE6EEE6E500E7A
:1010D000EE6E520EEE6E4F0EEE6E4D0EEE6E200E5A
:1010E000EE6E540EEE6E450EEE6E530EEE6E540E18
:1010F000EE6EEE6AD9502B0FE96EDACFEAFF770E6B
:10110000EE6E720EEE6E690EEE6E740EEE6E690E7F
:10111000EE6E6E0EEE6E670EEE6E200EEE6E640ECE
:10112000EE6E610EEE6E740EEE6E610EEE6EEE6A97
:10113000D950380FE96EDACFEAFF720EEE6E650E07
:10114000EE6E610EEE6E640EEE6E690EEE6E6E0E5B
:10115000EE6E670EEE6E200EEE6E640EEE6E610E9B
:10116000EE6E740EEE6E610EEE6EEE6A956A966A23
:101170000F0EC16E88D9D0D8D9500B0FE66E000E75
:10118000DA20E66ED3D9E552E552C00EE66EA4D958
:10119000E552D9501B0FE66E000EDA20E66EC6D976
:1011A000E552E552E80EE66E030EE66E7AD8E55299
:1011B000E552010EE66E90D9E552D9502B0FE66E3E
:1011C000000EDA20E66EB2D9E552E552C00EE66EA8
:1011D00083D9E552D950020FE66E000EDA20E66E92
:1011E000A5D9E552E552DF6A080EDF5C1DE2DFCFCC
:1011F000E6FFE66AD950020F006EDACF01F0DF5049
:101200000F010024E96E000E0120EA6EEF50E66E39
:10121000A3D8E552E552E5520F0EE66EE66A41D8D4
:10122000E552E552DF2AE0D7E80EE66E030EE66EE1
:1012300038D8E552E552010EE66E4ED9E552D95046
:10124000380FE66E000EDA20E66E70D9E552E552F0
:10125000C00EE66E41D9E552DF6A080EDF5C16E289
:10126000DFCFE6FFE66ACBD8E552E552E76E010E26
:10127000E7CFDBFFDBCFE6FF44D9E5520F0EE66E8A
:10128000E66A0FD8E552E552DF2AE7D7FFD7450EC9
:10129000E15C02E2E16AE552E16EE552E7CFD9FF97
:1012A0001200D9CFE6FFE1CFD9FF040EE126DE6AB6
:1012B000DD6ADECF00F0DDCF01F0FD0EDBCF02F006
:1012C000FE0EDBCF03F00250005C035001581AE21F
:1012D000020EDB6A030EDB6A020EDBCF00F0030EA8
:1012E000DBCF01F0C60E005C020E015806E2020ED2
:1012F000DB2A030E01E3DB2AEFD7DF2A010E01E32D
:10130000DB2AD7D7040EE15C02E2E16AE552E16E26
:10131000E552E7CFD9FF120093929380949E819279
:10132000829E949C828CC78EC78C020EC66EC68A23
:101330001200D9CFE6FFE1CFD9FFFE0EDB50C96E18
:10134000C7A0FED7E552E7CFD9FF1200C96AC7A0F0
:10135000FED7C95000D01200D9CFE6FFE1CFD9FFA8
:10136000020EE126FF0EE76EFC0EDBCF00F0FD0E55
:10137000DBCF01F0E7500016016A0050DF6EFC0E73
:10138000DBCF00F0FD0EDBCF01F001C000F0016A01
:10139000FF0E0016000E0116010E00C0DBFF829C3E
:1013A000060EE66EC6DFE552828C829C020EE66E69
:1013B000C0DFE552010EDBCFE6FFBBDFE552DFCF3A
:1013C000E6FFB7DFE552FE0EDBCFE6FFB2DFE55208
:1013D000828C640EE66EE66A64DFE552E552829C1A
:1013E000040EE66EA6DFE552828C020EE15C02E29C
:1013F000E16AE552E16EE552E7CFD9FF1200D9CF9D
:10140000E6FFE1CFD9FF030EE126FF0EE76EFD0EEA
:10141000DBCF00F0FE0EDBCF01F0E7500016016AD3
:10142000010E00C0DBFFFD0EDBCF00F0FE0EDBCFB8
:1014300001F001C000F0016AFF0E0016000E011657
:10144000020E00C0DBFF829C030EE66E72DFE552E7
:10145000020EDBCFE6FF6DDFE552010EDBCFE6FFCC
:1014600068DFE55273DFDF6E828CDF50006E030EA3
:10147000E15C03E200D0E16AE552E16E0050E55222
:10148000E7CFD9FF1200380EE66E26D8E5520F0ED0
:10149000E66EE66A06DFE552E552010EE66E1CD8FE
:1014A000E5520F0EE66EE66AFCDEE552E5520C0EE2
:1014B000E66E12D8E5520F0EE66EE66AF2DEE552EF
:1014C000E552800EE66E08D8E5520F0EE66EE66A2B
:1014D000E8DEE552E5521200D9CFE6FFE1CFD9FFB1
:1014E000FE0EDB50836E8490849284840F0EE66E31
:1014F000E66AD7DEE552E5528494E552E7CFD9FF9C
:101500001200D9CFE6FFE1CFD9FFFE0EDB50836E8C
:101510008480849284840F0EE66EE66AC2DEE55211
:10152000E5528494E552E7CFD9FF1200D9CFE6FF08
:10153000E1CFD9FF020EE126DE6ADD6AFD0EDBCFC8
:1015400000F0FE0EDBCF01F0DE500024E96EDD502E
:101550000120EA6EEF501BE0FD0EDBCF00F0FE0E27
:10156000DBCF01F0DE500024E96EDD500120EA6E91
:10157000EF50E66EC6DFE5520F0EE66EE66A91DECC
:10158000E552E552DF2A010E01E3DB2AD7D7020E2E
:10159000E15C02E2E16AE552E16EE552E7CFD9FF94
:0215A000120037
:0E15A2002A0EF66E100EF76E000EF86E0001A7
:1015B0000900F550656F0900F550666F03E1656736
:1015C00001D03DD00900F550606F0900F550616F02
:1015D0000900F550626F09000900F550E96E090035
:1015E000F550EA6E090009000900F550636F090023
:1015F000F550646F09000900F6CF67F0F7CF68F087
:10160000F8CF69F060C0F6FF61C0F7FF62C0F8FF75
:101610000001635302E1645307E00900F550EE6EE8
:101620006307F8E26407F9D767C0F6FF68C0F7FF01
:1016300069C0F8FF00016507000E665BBFD71200A6
:10164000000EF36E00EE00F0080E01D81200EA6002
:1016500002D0EE6AFCD7F350E9601200EE6AFCD7C4
:1016600013EE00F023EE00F0F86A059CD1EC0AF0CE
:0C1670003EEC0BF016EC08F0FBD712006B
:02167C0012005A
:00000001FF
