:020000040000FA
:06000000E8EF0CF0120015
:06100000E8EF0CF0120005
:021008001200D4
:021018001200C4
:02102A000000C4
:04102C009380938298
:10103000C686C694C692C690C698C78EC79C770EC1
:10104000C86EC68A1200D9CFE6FFE1CFD9FFC580AE
:101050009EA6FED79E96FE0EDB50FE0BC96E9EA688
:10106000FED79E96C5AC06D0C5849EA6FED79E969A
:10107000000E23D0FD0EDB50C96E9EA6FED79E96B5
:10108000C5AC06D0C5849EA6FED79E96000E15D090
:10109000FC0EDB50C96E9EA6FED79E96C5AC07D04F
:1010A000C5849EA6FED79E96000E07D006D0C584A6
:1010B0009EA6FED79E96010E00D0E552E7CFD9FF3F
:1010C0001200D9CFE6FFE1CFD9FFE652C5809EA638
:1010D000FED79E96FE0EDB50FE0BC96E9EA6FED777
:1010E0009E96C5AC06D0C5849EA6FED79E96000EE1
:1010F00034D0FD0EDB50C96E9EA6FED79E96C5ACC1
:1011000006D0C5849EA6FED79E96000E26D0DF6A26
:10111000FA0EDB50DF5C1BE2DF50E76EFB0EDBCF2D
:10112000E9FFFC0EDBCFEAFFE750E926000EEA22DA
:10113000EF50C96E9EA6FED79E96C5AC06D0C5845C
:101140009EA6FED79E96000E08D0DF2AE1D7C58462
:101150009EA6FED79E96010E00D0E552E552E7CF3F
:10116000D9FF1200D9CFE6FFE1CFD9FFC5809EA6F7
:10117000FED79E96FE0EDB50FE0BC96E9EA6FED7D6
:101180009E96C5AC05D0C5829EA6FED79E96F2D788
:10119000C5849EA6FED79E9600D0E552E7CFD9FF24
:1011A0001200D9CFE6FFE1CFD9FFE652C5809EA657
:1011B000FED79E96FE0EDB50FE0BC96E9EA6FED796
:1011C0009E96C5AC06D0C5849EA6FED79E96000E00
:1011D0005CD0FD0EDB50C96E9EA6FED79E96C5ACB8
:1011E00006D0C5849EA6FED79E96000E4ED0C58220
:1011F0009EA6FED79E96FE0EDB500109C96E9EA6E6
:10120000FED79E96C5AC06D0C5849EA6FED79E96F8
:10121000000E3BD0DF6AFA0EDB04DF5C19E2C58604
:101220009EA6FED79E96C59AC5889EA6FED79E9678
:10123000DF50E76EFB0EDBCFE9FFFC0EDBCFEAFFF2
:10124000E750E926000EEA22C9CFEFFFDF2AE3D7F5
:10125000C5869EA6FED79E96C58AC5889EA6FED741
:101260009E96DF50E76EFB0EDBCFE9FFFC0EDBCF77
:10127000EAFFE750E926000EEA22C9CFEFFFC58456
:101280009EA6FED79E96010E00D0E552E552E7CF0E
:10129000D9FF1200D9CFE6FFE1CFD9FFE652C580D2
:1012A0009EA6FED79E96FE0EDB500109C96E9EA635
:1012B000FED79E96C5AC06D0C5849EA6FED79E9648
:1012C000000E3BD0DF6AFB0EDB04DF5C19E2C58653
:1012D0009EA6FED79E96C59AC5889EA6FED79E96C8
:1012E000DF50E76EFC0EDBCFE9FFFD0EDBCFEAFF40
:1012F000E750E926000EEA22C9CFEFFFDF2AE3D745
:10130000C5869EA6FED79E96C58AC5889EA6FED790
:101310009E96DF50E76EFC0EDBCFE9FFFD0EDBCFC4
:10132000EAFFE750E926000EEA22C9CFEFFFC584A5
:101330009EA6FED79E96010E00D0E552E552E7CF5D
:10134000D9FF1200D9CFE6FFE1CFD9FF020EE12687
:10135000C5809EA6FED79E96FE0EDB50FE0BC96E84
:101360009EA6FED79E96C5AC06D0C5849EA6FED787
:101370009E96000E35D0DE6ADD6ADECF00F0DDCF4E
:1013800001F0FA0EDBCF02F0FB0EDBCF03F00250D0
:10139000005C035001581EE2FC0EDBCF00F0FD0E96
:1013A000DBCF01F0DE500024E96EDD500120EA6E53
:1013B000EF50C96E9EA6FED79E96C5AC06D0C584DA
:1013C0009EA6FED79E96000E0BD0DF2A010E01E3EB
:1013D000DB2AD3D7C5849EA6FED79E96010E00D0E9
:1013E000006E020EE15C02E2E16AE552E16E00503D
:1013F000E552E7CFD9FF1200D9CFE6FFE1CFD9FF01
:10140000020EE126C5809EA6FED79E96FE0EDB50FC
:101410000109C96E9EA6FED79E96C5AC06D0C584AE
:101420009EA6FED79E96000E4DD0DE6ADD6ADECF08
:1014300000F0DDCF01F0FA0EDBCF02F0FB0EDBCFC8
:1014400003F00206000E035A0250005C03500158DC
:101450001CE2C5869EA6FED79E96C59AC5889EA606
:10146000FED79E96FC0EDBCF00F0FD0EDBCF01F029
:10147000DE500024E96EDD500120EA6EC9CFEFFF97
:10148000DF2A010E01E3DB2AD2D7C5869EA6FED74E
:101490009E96C58AC5889EA6FED79E96FC0EDBCF7B
:1014A00000F0FD0EDBCF01F0DE500024E96EDD50D0
:1014B0000120EA6EC9CFEFFFC5849EA6FED79E9697
:1014C000010E00D0006E020EE15C02E2E16AE5521C
:0C14D000E16E0050E552E7CFD9FF12009A
:0414DC00D9CFE6FF7F
:1014E000E1CFD9FF040EE126DE6ADD6ADECF00F02F
:1014F000DDCF01F0FD0EDBCF02F0FE0EDBCF03F0FF
:101500000250005C035001581AE2020EDB6A030E1F
:10151000DB6A020EDBCF00F0030EDBCF01F0C60E5C
:10152000005C020E015806E2020EDB2A030E01E304
:10153000DB2AEFD7DF2A010E01E3DB2AD7D7040E1F
:10154000E15C02E2E16AE552E16EE552E7CFD9FFE4
:1015500012000F0EC16E956A966A1CD8320EE66EA6
:10156000E66ABCDFE552E5526AC06EF06BC06FF010
:1015700073D80F0EE66EE66AB1DFE552E552C00E93
:10158000E66E32D8E5526CC06EF06DC06FF064D874
:1015900000D01200380EE66E27D8E5520F0EE66E28
:1015A000E66A9CDFE552E552010EE66E1DD8E55273
:1015B0000F0EE66EE66A92DFE552E5520C0EE66E1D
:1015C00013D8E5520F0EE66EE66A88DFE552E55263
:1015D000800EE66E09D8E5520F0EE66EE66A7EDFF3
:1015E000E552E55200D01200D9CFE6FFE1CFD9FF96
:1015F000FE0EDB50836E8490849284840F0EE66E20
:10160000E66A6CDFE552E55284940F0EE66EE66AF8
:1016100065DFE552E55200D0E552E7CFD9FF120071
:10162000D9CFE6FFE1CFD9FFFE0EDB50836E848079
:10163000849284840F0EE66EE66A50DFE552E5522E
:1016400084940F0EE66EE66A49DFE552E55200D05B
:10165000E552E7CFD9FF1200D9CFE6FFE1CFD9FF9E
:10166000020EE126DE6ADD6ADE5000016E250F0102
:10167000E96EDD5000016F210F01EA6EEF5019E0B5
:10168000DE5000016E250F01E96EDD5000016F2173
:101690000F01EA6EEF50E66EC3DFE5520F0EE66E05
:1016A000E66A1CDFE552E552DF2A010E01E3DB2A80
:1016B000DBD7020EE15C03E200D0E16AE552E16EA5
:1016C000E552E7CFD9FF1200D9CFE6FFE1CFD9FF2E
:1016D0005A0EE126D950180FE96EDACFEAFF530E01
:1016E000EE6E4C0EEE6E540EEE6E2D0EEE6E690E1C
:1016F000EE6E320EEE6E630EEE6EEE6AD950200F75
:10170000E96EDACFEAFF530EEE6E4D0EEE6E410E2D
:10171000EE6E520EEE6E540EEE6E4C0EEE6E4F0EE0
:10172000EE6E470EEE6E490EEE6E430EEE6E200E1E
:10173000EE6E540EEE6E450EEE6E430EEE6E480EDD
:10174000EE6EEE6AD950300FE96EDACFEAFF490E3D
:10175000EE6E320EEE6E430EEE6E200EEE6E450E07
:10176000EE6EEE6E500EEE6E520EEE6E4F0EEE6E92
:101770004D0EEE6E200EEE6E540EEE6E450EEE6EBB
:10178000530EEE6E540EEE6EEE6AD950400FE96EB7
:10179000DACFEAFF770EEE6E720EEE6E690EEE6E27
:1017A000740EEE6E690EEE6E6E0EEE6E670EEE6EDF
:1017B000200EEE6E640EEE6E610EEE6E740EEE6E28
:1017C000610EEE6EEE6AD9504D0FE96EDACFEAFF88
:1017D000720EEE6E650EEE6E610EEE6E640EEE6EC5
:1017E000690EEE6E6E0EEE6E670EEE6E200EEE6EF3
:1017F000640EEE6E610EEE6E740EEE6E610EEE6EA7
:10180000EE6A956A966AD08EF28EF28C0F0EC16ED9
:10181000F19EC0DE0001D950300F6C6FDACF6DF051
:101820000001D950200F6A6FDACF6BF092DEE80E1C
:10183000E66E030EE66E52DEE552E55216EC08F057
:10184000010EE66ED1DEE5520001D950400F6E6FF9
:10185000DACF6FF001DFC00EE66EC6DEE5520001A2
:10186000D950180F6E6FDACF6FF0F6DE080EE66E05
:10187000D950180FE66E000EDA20E66E300EE66ED6
:10188000A00EE66E61EC08F0006E050EE15E005001
:10189000A00EE66EB2EC08F0E552E80EE66E030E1E
:1018A000E66E1CDEE552E552010EE66E9DDEE55267
:1018B0000001D9504D0F6E6FDACF6FF0CDDEC00E44
:1018C000E66E92DEE552080EE66ED950040FE66E23
:1018D000000EDA20E66E300EE66EA00EE66ED1EC5B
:1018E00008F0006E050EE15E00500C0EDB6A000190
:1018F000D950040F6E6FDACF6FF0AEDEFFD75A0EFD
:10190000E15C02E2E16AE552E16EE552E7CFD9FF20
:021910001200C3
:0E1912002A0EF66E100EF76E000EF86E000133
:101920000900F550656F0900F550666F03E16567C2
:1019300001D03DD00900F550606F0900F550616F8E
:101940000900F550626F09000900F550E96E0900C1
:10195000F550EA6E090009000900F550636F0900AF
:10196000F550646F09000900F6CF67F0F7CF68F013
:10197000F8CF69F060C0F6FF61C0F7FF62C0F8FF02
:101980000001635302E1645307E00900F550EE6E75
:101990006307F8E26407F9D767C0F6FF68C0F7FF8E
:1019A00069C0F8FF00016507000E665BBFD7120033
:1019B000000EF36E00EE00F0080E01D81200EA608F
:1019C00002D0EE6AFCD7F350E9601200EE6AFCD751
:1019D00013EE00F023EE00F0F86A059C89EC0CF0A1
:0C19E000F6EC0CF064EC0BF0FBD71200EE
:0219EC001200E7
:00000001FF
