:020000040000FA
:06000000FFEF0BF01200FF
:06100000FFEF0BF01200EF
:021008001200D4
:021018001200C4
:02102A000000C4
:04102C00D9CFE6FF33
:10103000E1CFD9FF3A0EE126D9CFE9FFDACFEAFFB7
:10104000530EEE6E4D0EEE6E410EEE6E520EEE6EC5
:10105000540EEE6E200EEE6E4C0EEE6E4F0EEE6ED9
:10106000470EEE6E490EEE6E430EEE6E200EEE6EE5
:10107000540EEE6E450EEE6E430EEE6E480EEE6EA4
:10108000EE6AD950110FE96EDACFEAFF340EEE6E38
:10109000780EEE6E340EEE6E200EEE6E4B0EEE6E91
:1010A000450EEE6E590EEE6E500EEE6E410EEE6E69
:1010B000440EEE6E200EEE6E540EEE6E450EEE6E8B
:1010C000530EEE6E540EEE6EEE6AD950210FE96E9D
:1010D000DACFEAFF500EEE6E720EEE6E650EEE6E19
:1010E000730EEE6EEE6E200EEE6E4B0EEE6E650E15
:1010F000EE6E790EEE6EEE6AD9502B0FE96EDACFF6
:10110000EAFF500EEE6E720EEE6E650EEE6E730E10
:10111000EE6EEE6E650EEE6E640EEE6E200EEE6EF0
:101120004B0EEE6E650EEE6E790EEE6E3A0EEE6EB4
:10113000EE6AF19EF00E936E956A966A0F0EC16E7E
:1011400075DAD9CF6AF0DACF6BF0C3DAC00EE66E8B
:1011500096DAE5520001D950110F6A6FDACF6BF0C1
:10116000B8DA5E0EE66E010EE66E25DAE552E5525D
:10117000010EE66E84DAE5520001D950210F6A6F44
:10118000DACF6BF0A6DAC00EE66E79DAE55200012E
:10119000D9502B0F6A6FDACF6BF09BDA5E0EE66EDA
:1011A000010EE66E08DAE552E5520E0E816E0A0E69
:1011B000E66EE66A00DAE552E552F00E8114700A36
:1011C00058E0C00A3BE0600A1EE0300A01E06CD043
:1011D000640EE66EE66AEFD9E552E552F00E811430
:1011E000E00810E1300EF36E380EF3CFDBFF390E5E
:1011F000DB6ACC0EE66E43DAE552380EDBCFE6FF53
:1012000053DAE55251D0640EE66EE66AD4D9E5525F
:10121000E552F00E8114D00810E1310EF36E380E55
:10122000F3CFDBFF390EDB6ACC0EE66E28DAE5522F
:10123000380EDBCFE6FF38DAE55236D0640EE66EC4
:10124000E66AB9D9E552E552F00E8114B00810E112
:10125000320EF36E380EF3CFDBFF390EDB6ACC0EA5
:10126000E66E0DDAE552380EDBCFE6FF1DDAE55209
:101270001BD0640EE66EE66A9ED9E552E552F00E8A
:101280008114700810E1330EF36E380EF3CFDBFFDC
:10129000390EDB6ACC0EE66EF2D9E552380EDBCFA2
:1012A000E6FF02DAE55200D00D0E816E0A0EE66E00
:1012B000E66A81D9E552E552F00E8114700A58E0D1
:1012C000C00A3BE0600A1EE0300A01E06CD0640E08
:1012D000E66EE66A70D9E552E552F00E8114E00838
:1012E00010E1340EF36E380EF3CFDBFF390EDB6AFC
:1012F000CC0EE66EC4D9E552380EDBCFE6FFD4D96A
:10130000E55251D0640EE66EE66A55D9E552E552D3
:10131000F00E8114D00810E1350EF36E380EF3CFC5
:10132000DBFF390EDB6ACC0EE66EA9D9E552380E2A
:10133000DBCFE6FFB9D9E55236D0640EE66EE66A39
:101340003AD9E552E552F00E8114B00810E1360E9C
:10135000F36E380EF3CFDBFF390EDB6ACC0EE66E90
:101360008ED9E552380EDBCFE6FF9ED9E5521BD071
:10137000640EE66EE66A1FD9E552E552F00E81145E
:10138000700810E1370EF36E380EF3CFDBFF390E25
:10139000DB6ACC0EE66E73D9E552380EDBCFE6FF82
:1013A00083D9E55200D00B0E816E0A0EE66EE66A16
:1013B00002D9E552E552F00E8114700A57E0C00AD6
:1013C0003AE0600A1DE0300A01E06BD0640EE66E80
:1013D000E66AF1D8E552E552F00E8114E0080FE11B
:1013E000380EF36EF3CFDBFF390EDB6ACC0EE66E00
:1013F00046D9E552380EDBCFE6FF56D9E55251D03B
:10140000640EE66EE66AD7D8E552E552F00E811416
:10141000D00810E1390EF36E380EF3CFDBFF390E32
:10142000DB6ACC0EE66E2BD9E552380EDBCFE6FF39
:101430003BD9E55236D0640EE66EE66ABCD8E5527A
:10144000E552F00E8114B00810E1410EF36E380E33
:10145000F3CFDBFF390EDB6ACC0EE66E10D9E55216
:10146000380EDBCFE6FF20D9E5521BD0640EE66EC6
:10147000E66AA1D8E552E552F00E8114700810E139
:10148000420EF36E380EF3CFDBFF390EDB6ACC0E63
:10149000E66EF5D8E552380EDBCFE6FF05D9E5520A
:1014A00000D0070E816E0A0EE66EE66A84D8E55219
:1014B000E552F00E8114700A58E0C00A3BE0600A61
:1014C0001EE0300A01E06CD0640EE66EE66A73D866
:1014D000E552E552F00E8114E00810E1430EF36E80
:1014E000380EF3CFDBFF390EDB6ACC0EE66EC7D8C1
:1014F000E552380EDBCFE6FFD7D8E55251D0640E67
:10150000E66EE66A58D8E552E552F00E8114D0082E
:1015100010E1440EF36E380EF3CFDBFF390EDB6AB9
:10152000CC0EE66EACD8E552380EDBCFE6FFBCD869
:10153000E55236D0640EE66EE66A3DD8E552E552D5
:10154000F00E8114B00810E1450EF36E380EF3CFA3
:10155000DBFF390EDB6ACC0EE66E91D8E552380E11
:10156000DBCFE6FFA1D8E5521BD0640EE66EE66A3B
:1015700022D8E552E552F00E8114700810E1460EB3
:10158000F36E380EF3CFDBFF390EDB6ACC0EE66E5E
:1015900076D8E552380EDBCFE6FF86D8E55200D08C
:1015A00004D63A0EE15C02E2E16AE552E16EE552F0
:1015B000E7CFD9FF1200D9CFE6FFE1CFD9FF040E64
:1015C000E126DE6ADD6ADECF00F0DDCF01F0FD0E40
:1015D000DBCF02F0FE0EDBCF03F00250005C0350C5
:1015E00001581AE2020EDB6A030EDB6A020EDBCF41
:1015F00000F0030EDBCF01F0C60E005C020E0158B6
:1016000006E2020EDB2A030E01E3DB2AEFD7DF2A14
:10161000010E01E3DB2AD7D7040EE15C02E2E16AA6
:10162000E552E16EE552E7CFD9FF1200380EE66EC3
:1016300026D8E5520F0EE66EE66ABDDFE552E552AA
:10164000010EE66E1CD8E5520F0EE66EE66AB3DFB9
:10165000E552E5520C0EE66E12D8E5520F0EE66E1C
:10166000E66AA9DFE552E552800EE66E08D8E5523B
:101670000F0EE66EE66A9FDFE552E5521200D9CF03
:10168000E6FFE1CFD9FFFE0EDB50836E849084929B
:1016900084840F0EE66EE66A8EDFE552E55284948E
:1016A000E552E7CFD9FF1200D9CFE6FFE1CFD9FF4E
:1016B000FE0EDB50836E8480849284840F0EE66E6F
:1016C000E66A79DFE552E5528494E552E7CFD9FF27
:1016D0001200D9CFE6FFE1CFD9FF020EE126DE6A84
:1016E000DD6ADE5000016A250F01E96EDD50000160
:1016F0006B210F01EA6EEF5019E0DE5000016A2500
:101700000F01E96EDD5000016B210F01EA6EEF5011
:10171000E66ECADFE5520F0EE66EE66A4CDFE55272
:10172000E552DF2A010E01E3DB2ADBD7020EE15C82
:1017300002E2E16AE552E16EE552E7CFD9FF12001D
:101740002A0EF66E100EF76E000EF86E00010900FC
:10175000F550656F0900F550666F03E1656701D0CC
:101760003DD00900F550606F0900F550616F090028
:10177000F550626F09000900F550E96E0900F55057
:10178000EA6E090009000900F550636F0900F55081
:10179000646F09000900F6CF67F0F7CF68F0F8CF63
:1017A00069F060C0F6FF61C0F7FF62C0F8FF00019A
:1017B000635302E1645307E00900F550EE6E6307DE
:1017C000F8E26407F9D767C0F6FF68C0F7FF69C0A1
:0E17D000F8FF00016507000E665BBFD7120030
:0217DE00000EFB
:1017E000F36E00EE00F0080E01D81200EA6002D09D
:0E17F000EE6AFCD7F350E9601200EE6AFCD7F7
:0217FE0013EEE8
:1018000000F023EE00F0F86A059CA0EC0BF00DEC64
:0A1810000CF016EC08F0FBD71200F4
:02181A001200BA
:00000001FF
