:020000040000FA
:060000008EEF09F0120072
:061000008EEF09F0120062
:021008001200D4
:021018001200C4
:02102A000000C4
:04102C00D9CFE6FF33
:10103000E1CFD9FFE652956A836A5AD8100EE66E60
:10104000E66A0F0EE66E74D8E552E552E552F40EEC
:10105000E66E010EE66E11D8E552E552100EE66E10
:10106000E66AB9D8E552E552DF6EDF50836EFFD7EE
:10107000E552E552E7CFD9FF1200D9CFE6FFE1CF25
:10108000D9FF040EE126DE6ADD6ADECF00F0DDCF97
:1010900001F0FD0EDBCF02F0FE0EDBCF03F00250BD
:1010A000005C035001581AE2020EDB6A030EDB6A91
:1010B000020EDBCF00F0030EDBCF01F0C60E005CAA
:1010C000020E015806E2020EDB2A030E01E3DB2AC0
:1010D000EFD7DF2A010E01E3DB2AD7D7040EE15C4C
:1010E00002E2E16AE552E16EE552E7CFD9FF120074
:1010F00093929380949E8192829E949C828CC78EC0
:10110000C78C020EC66EC68A1200D9CFE6FFE1CFA9
:10111000D9FFFE0EDB50C96EC7A0FED7E552E7CF60
:10112000D9FF1200C96AC7A0FED7C95000D012006B
:10113000D9CFE6FFE1CFD9FF020EE126FF0EE76E21
:10114000FC0EDBCF00F0FD0EDBCF01F0E750001608
:10115000016A0050DF6EFC0EDBCF00F0FD0EDBCF2E
:1011600001F001C000F0016AFF0E0016000E01162A
:10117000010E00C0DBFF829C060EE66EC6DFE55264
:10118000828C829C020EE66EC0DFE552010EDBCF40
:10119000E6FFBBDFE552DFCFE6FFB7DFE552FE0E2D
:1011A000DBCFE6FFB2DFE552828C640EE66EE66AC4
:1011B00064DFE552E552829C040EE66EA6DFE5523E
:1011C000828C020EE15C02E2E16AE552E16EE552D8
:1011D000E7CFD9FF1200D9CFE6FFE1CFD9FF030E49
:1011E000E126FF0EE76EFD0EDBCF00F0FE0EDBCF3B
:1011F00001F0E7500016016A010E00C0DBFFFD0E92
:10120000DBCF00F0FE0EDBCF01F001C000F0016A81
:10121000FF0E0016000E0116020E00C0DBFF829CBE
:10122000030EE66E72DFE552020EDBCFE6FF6DDFE6
:10123000E552010EDBCFE6FF68DFE55273DFDF6EBC
:10124000828CDF50006E030EE15C03E200D0E16AA5
:0E125000E552E16E0050E552E7CFD9FF1200E3
:02125E002A0E56
:10126000F66E100EF76E000EF86E00010900F550D4
:10127000656F0900F550666F03E1656701D03DD0E9
:101280000900F550606F0900F550616F0900F550D5
:10129000626F09000900F550E96E0900F550EA6E29
:1012A000090009000900F550636F0900F550646FEB
:1012B00009000900F6CF67F0F7CF68F0F8CF69F0C2
:1012C00060C0F6FF61C0F7FF62C0F8FF0001635322
:1012D00002E1645307E00900F550EE6E6307F8E29F
:1012E0006407F9D767C0F6FF68C0F7FF69C0F8FF69
:0C12F00000016507000E665BBFD712000E
:0412FC00000EF36E7F
:1013000000EE00F0080E01D81200EA6002D0EE6A8A
:0C131000FCD7F350E9601200EE6AFCD735
:04131C0013EE00F0DC
:1013200023EE00F0F86A059C2FEC09F09CEC09F024
:0813300016EC08F0FBD71200D7
:021338001200A1
:00000001FF
