:020000040000FA
:0600000075EF0BF0120089
:0610000075EF0BF0120079
:021008001200D4
:021018001200C4
:02102A000000C4
:04102C00D9CFE6FF33
:10103000E1CFD9FF430EE126D950030FE96EDACF95
:10104000EAFF530EEE6E4D0EEE6E410EEE6E520E38
:10105000EE6E540EEE6E4C0EEE6E4F0EEE6E470EB2
:10106000EE6E490EEE6E430EEE6E200EEE6E540ED8
:10107000EE6E450EEE6E430EEE6E480EEE6EEE6AAE
:10108000D950130FE96EDACFEAFF490EEE6E320E39
:10109000EE6E430EEE6E200EEE6E520EEE6E540E9F
:1010A000EE6E430EEE6E200EEE6E540EEE6E450E9C
:1010B000EE6E530EEE6E540EEE6EEE6AD950200FA9
:1010C000E96EDACFEAFF770EEE6E720EEE6E690E03
:1010D000EE6E740EEE6E690EEE6E6E0EEE6E670EB6
:1010E000EE6E200EEE6E740EEE6E6F0EEE6E200E35
:1010F000EE6E520EEE6E540EEE6E430EEE6EEE6A15
:10110000D9502F0FE96EDACFEAFF440EEE6E610E72
:10111000EE6E740EEE6E650EEE6E200EEE6E6E0EC0
:10112000EE6E200EEE6E540EEE6E690EEE6E6D0ECD
:10113000EE6E650EEE6EEE6A500EF36E3B0EF3CF62
:10114000DBFF590EF36E3C0EF3CFDBFF710EF36E37
:101150003D0EF3CFDBFF020EF36E3E0EF3CFDBFF4F
:10116000210EF36E3F0EF3CFDBFF080EF36E400E41
:10117000F3CFDBFF140EF36E410EF3CFDBFF420E15
:10118000DB6A956A966A0F0EC16EA1D907D9000174
:10119000D950030F6A6FDACF6BF0ECD9C00EE66E50
:1011A000BFD9E5520001D950130F6A6FDACF6BF047
:1011B000E1D9F40EE66E010EE66E4ED9E552E55227
:1011C000010EE66EADD9E5520001D950200F6A6FCD
:1011D000DACF6BF0CFD9C00EE66EA2D9E55200018E
:1011E000D9502F0F6A6FDACF6BF0C4D9F40EE66EC8
:1011F000010EE66E31D9E552E552DF6A070EDF5C7B
:101200001EE2D9503B0F006EDACF01F0DF500F0124
:101210000024E96E000E0120EA6EEF50E66EDFCF8B
:10122000E6FFD00EE66EC3D8E552E552E552140E45
:10123000E66EE66A11D9E552E552DF2ADFD7010EE4
:10124000E66E6ED9E552800EE66E6AD9E552020E60
:10125000E66ED00EE66ECED8E552E552E76E3D0E54
:10126000E7CFDBFFDB501F0BE76E020EE7CFDBFFA4
:10127000DBCFE6FFB6D9E5523A0EE66E66D9E55207
:10128000010EE66ED00EE66EB5D8E552E552E76E79
:101290003C0EE7CFDBFFDBCFE6FFA3D9E5523A0EEA
:1012A000E66E53D9E552E66AD00EE66EA3D8E55253
:1012B000E552E76E3B0EE7CFDBFFDBCFE6FF91D9D0
:1012C000E5523D0EDB50200BE76E020EE7CFDBFF51
:1012D000200EE66E3AD9E552020EDB5005E0500EC4
:1012E000E66E33D9E55204D0410EE66E2ED9E552B2
:1012F0004D0EE66E2AD9E552C00EE66E11D9E552C2
:10130000040EE66ED00EE66E75D8E552E552E76E35
:101310003F0EE7CFDBFFDBCFE6FF63D9E5522F0EB1
:10132000E66E13D9E552050EE66ED00EE66E62D873
:10133000E552E552E76E400EE7CFDBFFDBCFE6FF7D
:1013400050D9E5522F0EE66E00D9E552320EE66E08
:10135000FCD8E552300EE66EF8D8E552060EE66E81
:10136000D00EE66E47D8E552E552E76E410EE7CF64
:10137000DBFFDBCFE6FF35D9E552190EE66EE66AF4
:101380006BD8E552E5525FD7430EE15C02E2E16AB9
:10139000E552E16EE552E7CFD9FF120093809382C8
:1013A000080EC66EC78E770EC86EC68A1200D9CFD9
:1013B000E6FFE1CFD9FFC5809EA6FED79E96FE0E22
:1013C000DB50FE0BC96E9EA6FED79E96FD0EDB502F
:1013D000C96E9EA6FED79E96FC0EDB50C96E9EA6D9
:1013E000FED79E96C5849EA6FED79E96E552E7CF71
:1013F000D9FF1200D9CFE6FFE1CFD9FFE652C58071
:101400009EA6FED79E96FE0EDB50FE0BC96E9EA6D4
:10141000FED79E96FD0EDB50C96E9EA6FED79E9609
:10142000C5829EA6FED79E96FE0EDB500109C96EB0
:101430009EA6FED79E96C5869EA6FED79E96C950AE
:10144000DF6EC5849EA6FED79E96DF5000D0E55283
:10145000E552E7CFD9FF1200D9CFE6FFE1CFD9FFA0
:10146000040EE126DE6ADD6ADECF00F0DDCF01F09A
:10147000FD0EDBCF02F0FE0EDBCF03F00250005C6E
:10148000035001581AE2020EDB6A030EDB6A020EF9
:10149000DBCF00F0030EDBCF01F0C60E005C020EC6
:1014A000015806E2020EDB2A030E01E3DB2AEFD726
:1014B000DF2A010E01E3DB2AD7D7040EE15C02E24A
:1014C000E16AE552E16EE552E7CFD9FF1200380E2E
:1014D000E66E26D8E5520F0EE66EE66ABDDFE552EF
:1014E000E552010EE66E1CD8E5520F0EE66EE66A76
:1014F000B3DFE552E5520C0EE66E12D8E5520F0E40
:10150000E66EE66AA9DFE552E552800EE66E08D87F
:10151000E5520F0EE66EE66A9FDFE552E5521200D5
:10152000D9CFE6FFE1CFD9FFFE0EDB50836E84906A
:10153000849284840F0EE66EE66A8EDFE552E552F1
:101540008494E552E7CFD9FF1200D9CFE6FFE1CF6F
:10155000D9FFFE0EDB50836E8480849284840F0E4C
:10156000E66EE66A79DFE552E5528494E552E7CF0C
:10157000D9FF1200D9CFE6FFE1CFD9FF020EE12655
:10158000DE6ADD6ADE5000016A250F01E96EDD507A
:1015900000016B210F01EA6EEF5019E0DE500001EF
:1015A0006A250F01E96EDD5000016B210F01EA6E23
:1015B000EF50E66ECADFE5520F0EE66EE66A4CDFCC
:1015C000E552E552DF2A010E01E3DB2ADBD7020EEA
:1015D000E15C02E2E16AE552E16EE552E7CFD9FF54
:1015E0001200D9CFE6FFE1CFD9FFE652FE0EDB5065
:1015F000DF6EF00EDF14DF6EDF380F0B3009DF6EA9
:10160000DFCFE6FFA2DFE552FE0EDB50DF6E0F0EEE
:10161000DF14DF6E300EDF10DF6EDFCFE6FF95DF09
:0C162000E552E552E552E7CFD9FF120079
:04162C002A0EF66E1E
:10163000100EF76E000EF86E00010900F550656F90
:101640000900F550666F03E1656701D03DD00900E0
:10165000F550606F0900F550616F0900F550626F39
:1016600009000900F550E96E0900F550EA6E09001D
:1016700009000900F550636F0900F550646F090017
:101680000900F6CF67F0F7CF68F0F8CF69F060C0D7
:10169000F6FF61C0F7FF62C0F8FF0001635302E18B
:1016A000645307E00900F550EE6E6307F8E2640743
:1016B000F9D767C0F6FF68C0F7FF69C0F8FF0001FF
:0A16C0006507000E665BBFD712003D
:0616CA00000EF36E00EEBD
:1016D00000F0080E01D81200EA6002D0EE6AFCD7D2
:0A16E000F350E9601200EE6AFCD737
:0616EA0013EE00F023EEF8
:1016F00000F0F86A059C16EC0BF083EC0BF016EC8E
:0617000008F0FBD7120007
:021706001200CF
:00000001FF
